:100000000C94F6400C9427410C9427410C94274102
:100010000C9427410C9427410C9427410C942741C0
:100020000C9427410C9427410C9427410C942741B0
:100030000C9427410C9427410C9427410C942741A0
:100040000C9427410C94877F0C9427410C942741F2
:100050000C9427410C9427410C9427410C94457E25
:100060000C9427410C94B97E0C948F7E0C942741FC
:100070000C9427410C9427410C9427410C94274160
:100080000C94597F0C9427410C9427410C942741E0
:100090000C9427410C9427410C9427410C94B57F74
:1000A0000C9427410C9427410C942B7F0C942741EE
:1000B0000C9427410C9427410C9427410C94FD7E0D
:1000C0000C9427410C9427410C9427410C94274110
:1000D0000C9427410C9427410C9427410C94274100
:1000E0000C9427410C94AC740C9437520C949244A9
:1000F0000C9438540C94B9460C942E430C941B4326
:100100000C94F4420C947D5B0C9493460C94B45381
:100110000C949D870C94866F0C9434740C949254B8
:100120000C945C740C9474440C9433430C94417E92
:100130000C9466460C94A2460C946A440C947E522D
:100140000C9484740C94F8420C9408550C9421522D
:100150000C9413430C94A5550C9409430C94C84B70
:100160000C9430420C94B7530C94F64A0C94987447
:100170000C94014D0C9423440C9495600C94E56E02
:100180000C94746D0C9438740C94036C0C9469602A
:100190000C94EC620C9471610C94B3540C946877D9
:1001A0000C94657C0C943A700C9434780C9409543B
:1001B0000C94BC480C94D2790C94EC6A0C945B447B
:1001C0000C9402440C9400430C94BC4C0C949F4C33
:1001D0000C94087B0C94AE600C942E740C94B75B5A
:1001E0000C94CF550C9422630C94E7540C949C44CB
:1001F0000C944A520C94315F0C940A440C94555C54
:100200000C94274C0C947E740C940D430C942F4347
:100210000C9448550C94C8550C9454640C94C155D6
:100220000C9403430C9421430C94CA6D0C94CB5949
:100230000C9456740C945E5D0C942A700C942543B7
:100240000C9470740C94765D0C94D6730C94C74621
:100250000C94AC550C94E37B0C94744D0C94BA55EF
:100260000C942E540C949B610C94A6740C940F4423
:100270000C9468530C94A77A0C9429430C946E7BCD
:100280000C949F470C94F4610C943B5C0C941944BF
:100290000C94E46B0C9432550C9488440C949E633B
:1002A0000C9443770C94EB530C94904D0C947E4437
:1002B0000C94FC420C9487610C94B6740C943A54E0
:1002C0000C94F9570C94094F0C94FF760C9414611C
:1002D0000C94B2740C94786E0C943A4D0C94EE42DB
:1002E0000C94225F0C944C740C9434540C9447443A
:1002F0000C942F420C9482600C944E470C945152F3
:100300000C9486550C943E740C9428520C94C65050
:100310000C9435440C9436540C944B650C944C530B
:100320000C9451440C94844D0C94A34D0C943C5467
:100330000C946E770C9401470C94734D0C943254CA
:100340000C941C650C942D440C94C1600C94AA82EE
:100350000C949C4D0C94F85F0C9420740C943D44C8
:100360000C945E790C94B3550C9452740C949D5576
:100370000C946A740C941A790C9417430C943054AE
:10038000000001010800000100010120000002003E
:100390000A1A0E01E723000A1A0E01E744000A1A9E
:1003A0000E01E765000A1A0E01E786000A1A0E011F
:1003B000E7A7000A1A0E01E7C8000A1A0E01E7E9CA
:1003C000000A1A0E01E70A010A1A0E01E72B010AB8
:1003D0001A0E01E74C010A1A0E01E76D0114032001
:1003E00006EC7501040500FEFC78010A1A0E01E70F
:1003F000990118272004DA0E0204232018DC2002B9
:1004000018272004DA950216272006DA010318239C
:100410002004DC6A0318272004DADF0318272004ED
:10042000DA540418252004DAC30418272004DA3823
:100430000518272004DAAD0505140801E4BA050AF9
:100440001A0E01E7DB050A1A0E01E7FC050A1A0E6F
:1004500001E71D060A1A0E01E73E060A1A0E01E719
:100460005F060A1A0E01E7800618252004DAEF0657
:1004700018252004DC5E0716152004EC98071825C3
:100480002004DC070816272004DA73081625200448
:10049000DAD90818272004DA4E0918232004DCB71B
:1004A0000904112018EEC00918252004DC2F0A18B1
:1004B000252004DA9E0A16252004DC040B182520CA
:1004C00004DA730B18132004ECAC0B18152004ECA1
:1004D000EB0B18252004DA5A0C18252004DAC90C75
:1004E00016132004ECFE0C18252004DC6D0D1625D7
:1004F0002004DCD30D18132004EE0C0E1825200464
:10050000DC7B0E18252004DCEA0E18232004DC53C3
:100510000F18252004DCC20F18272004DA37100A30
:100520001A0E01E758100A1A0E01E779100A1A0E7E
:1005300001E79A100A1A0E01E7BB1014042006FD09
:10054000C5100A1A0E01E7E61018252004DA551125
:1005500018252004DCC41116152004ECFE11182502
:100560002004DC6D1216272004DAD9121625200487
:10057000DA3F1318272004DAB41318232004DC1DF3
:100580001404112018EE261418252004DC951418E4
:10059000252004DA041516252004DC6A1518252008
:1005A00004DAD91518132004EC121618152004ECDF
:1005B000511618252004DAC01618252004DA2F1742
:1005C00016132004EC641718252004DCD317162515
:1005D0002004DC391818132004EE721818252004A2
:1005E000DCE11818252004DC501918232004DCB99C
:1005F0001918252004DC281A18272004DA9D1A0A65
:100600001A0E01E7BE1A0A1A0E01E7DF1A0A1A0EBD
:1006100001E7001B0A1A0E01E70000FFE0180601BF
:10062000806018060180601806018060180601804D
:10063000601806018060180601807FF0FFE0180650
:1006400001806018060180601806018060180601AC
:1006500080601806018060180601807FF0FFE018B6
:100660000601806018060180601806018060180687
:100670000180601806018060180601807FF0FFE0AD
:100680001806018060180601806018060180601855
:10069000060180601806018060180601807FF0FF67
:1006A000E01806018060180601806018060180606D
:1006B00018060180601806018060180601807FF02E
:1006C000FFE01806018060180601806018060180AE
:1006D0006018060180601806018060180601807F9E
:1006E000F0FFE0180601806018060180601806011E
:1006F000806018060180601806018060180601807D
:100700007FF0FFE01806018060180601806018067F
:1007100001806018060180601806018060180601DB
:10072000807FF0FFE01806018060180601806018E5
:1007300006018060180601806018060180601806B6
:1007400001807FF0FFE018060180601806018060DC
:100750001806018060180601806018060180601884
:100760000601807FF0FFE018060180601806018016
:10077000601806018060180601806018060180601C
:10078000180601807FF07FFFEFFFFF7FFFE06FFF24
:1007900060FFE018060180601806018060180601FD
:1007A00080601806018060180601806018060180CC
:1007B0007FF03FFFFC3FFFFCDFFFFBEFFFF7E000B8
:1007C0000FE0000FE0000FE0000FE0000FE0000F6F
:1007D000E0000FE0000FE0000FE0000FE0000FE08E
:1007E000000FE0000FE00007C000030000008000E1
:1007F00003C00007E0000FE0000FE0000FE0000F73
:10080000E0000FE0000FE0000FE0000FE0000FE05D
:10081000000FE0000FE0000FE0000FEFFFF7DFFF39
:10082000FB3FFFFC3FFFFC37FFFFFFFFFFFFF73001
:1008300037FFFFFFFFFFFFF7303FFFFC3FFFFC1FCD
:10084000FFFB0FFFF700000F00000F00000F00007C
:100850000F00000F00000F00000F00000F00000F3E
:1008600000000F00000F00000F00000F0000071F26
:10087000FFFB3FFFFC9FFFF8C00000E00000E0002E
:1008800000E00000E00000E00000E00000E0000008
:10089000E00000E00000E00000E00000E00000E018
:1008A0000000EFFFF0DFFFF83FFFFC3FFFFCFFFF22
:1008B000F3FFFFC7FFFECFFFF700003C0000F00092
:1008C00003C0000F00003C0000F00003C0000F0058
:1008D000003C0000F00003C0000F00003C00007767
:1008E000FFFEFFFFFC7FFFEC0000700003C0000F65
:1008F00000003C0000F00003C0000F00003C0000BE
:10090000F00003C0000F00003C0000F00003CFFF28
:10091000F77FFFEFFFFFCFFFFF00C00003E00007FE
:10092000E0000FE0000FE0000FE0000FE0000FE03C
:10093000000FE0000FE0000FE0000FE0000FE0000C
:100940000FE0000FE0000FE00007DFFFFB3FFFFCC0
:100950001FFFFB00000700000F00000F00000F004A
:10096000000F00000F00000F00000F00000F00003C
:100970000F00000F00000F00000F00000F00000725
:100980000000033FFFFC3FFFFCDFFFF8EFFFF0E05C
:100990000000E00000E00000E00000E00000E000F7
:1009A00000E00000E00000E00000E00000E00000E7
:1009B000E00000E00000E00000DFFFF83FFFFC1F68
:1009C000FFFB00000700000F00000F00000F0000F9
:1009D0000F00000F00000F00000F00000F00000FBD
:1009E00000000F00000F00000F00000F0FFFF71FA7
:1009F000FFFB3FFFFC3FFFFC3FFFFC3FFFFCDFFF37
:100A0000F8EFFFF0E00000E00000E00000E0000090
:100A1000E00000E00000E00000E00000E00000E096
:100A20000000E00000E00000E00000E00000DFFF68
:100A3000F83FFFFC9FFFFBC00007E0000FE0000F46
:100A4000E0000FE0000FE0000FE0000FE0000FE01B
:100A5000000FE0000FE0000FE0000FE0000FE000EB
:100A60000FEFFFF7DFFFFB3FFFFC3FFFFC3FFFFC0B
:100A70003FFFFCDFFFFBEFFFF7E0000FE0000FE0C0
:100A8000000FE0000FE0000FE0000FE0000FE000BB
:100A90000FE0000FE0000FE0000FE0000FE0000F9C
:100AA000E00007C000030000000000030000070092
:100AB000000F00000F00000F00000F00000F0000EB
:100AC0000F00000F00000F00000F00000F00000FCC
:100AD00000000F00000F0000070000033FFFFC3F75
:100AE000FFFCDFFFFBEFFFF7E0000FE0000FE0008F
:100AF0000FE0000FE0000FE0000FE0000FE0000F3C
:100B0000E0000FE0000FE0000FE0000FE0000FE05A
:100B10000007DFFFFB3FFFFC9FFFFBC00007E0007B
:100B20000FE0000FE0000FE0000FE0000FE0000F0B
:100B3000E0000FE0000FE0000FE0000FE0000FE02A
:100B4000000FE0000FEFFFF7DFFFFB3FFFFC3FFF71
:100B5000FC3FFFFC3FFFFCDFFFFBEFFFF7E0000F78
:100B6000E0000FE0000FE0000FE0000FE0000FE0FA
:100B7000000FE0000FE0000FE0000FE0000FE000CA
:100B80000FE0000FE00007DFFFFB3FFFFC1FFFFB54
:100B900000000700000F00000F00000F00000F0012
:100BA000000F00000F00000F00000F00000F0000FA
:100BB0000F00000F00000F00000F0FFFF71FFFFBDB
:100BC0003FFFFC3FFFFC7BDEF00000000000000068
:100BD0007BDEF0FFE01806018060180601806018D7
:100BE0000601806018060180601806018060180602
:100BF00001807FF0FFE01806018060180601806028
:100C000018060180601806018060180601806018CF
:100C10000601807FF0FFE018060180601806018061
:100C20006018060180601806018060180601806067
:100C3000180601807FF0FFE01806018060180601A9
:100C40008060180601806018060180601806018027
:100C500060180601807FF0FFE0180601806018062A
:100C60000180601806018060180601806018060186
:100C70008060180601807FF0FFE018060180601890
:100C80000601806018060180601806018060180661
:100C9000018060180601807FF03FFFFC3FFFFCDF12
:100CA000FFFBEFFFF7E0000FE0000FE0000FE000B8
:100CB0000FE0000FE0000FE0000FE0000FE0000F7A
:100CC000E0000FE0000FE0000FE0000FE00007DFA2
:100CD000FFFB3FFFFC9FFFFBC00007E0000FE000B1
:100CE0000FE0000FE0000FE0000FE0000FE0000F4A
:100CF000E0000FE0000FE0000FE0000FE0000FE069
:100D0000000FE00007C00003C00000E00000E000AA
:100D100000E00000E00000E00000E00000E0000073
:100D2000E00000E00000E00000E00000E00000E083
:100D30000000E00000E00000DFFFF83FFFFC9FFF45
:100D4000FBC00007E0000FE0000FE0000FE0000F25
:100D5000E0000FE0000FE0000FE0000FE0000FE008
:100D6000000FE0000FE0000FE0000FEFFFF7DFFFE4
:100D7000FB3FFFFC3FFFFC1FFFF8FFFFF9FFFFB049
:100D80000000E0000380000E0000380000E00003D7
:100D900080000E0000380000E0000380000E00001C
:100DA000380000E00003BFFFCDFFFF8FFFFF3FFFD4
:100DB000FC00000300000700000F00000F00000F00
:100DC00000000F00000F00000F00000F00000F00D8
:100DD000000F00000F00000F00000F00000F0000C8
:100DE000071FFFFB3FFFFC9FFFFBC00007E0000F5A
:100DF000E0000FE0000FE0000FE0000FE0000FE068
:100E0000000FE0000FE0000FE0000FE0000FE00037
:100E10000FE0000FEFFFF7DFFFFB3FFFFC3FFFFCA2
:100E20003FFFFCFFFFFDFFFFBBFFFCE00003800076
:100E30000E0000380000E0000380000E00003800C3
:100E400000E0000380000E0000380000E000038096
:100E5000000DFFFF8FFFFF9FFFFB00000E0000381B
:100E60000000E0000380000E0000380000E00003F6
:100E700080000E0000380000E0000380000E00003B
:100E80003BFFFCDFFFF8FFFFF3FFFFC03FFFFCFF6E
:100E9000FFFDFFFFBBFFFCE0000380000E000038F9
:100EA0000000E0000380000E0000380000E00003B6
:100EB00080000E0000380000E0000380000DFFFFFE
:100EC0008FFFFF9FFFFB00000E0000380000E000D6
:100ED0000380000E0000380000E0000380000E00D8
:100EE00000380000E0000380000E0000380000C061
:100EF00000003FFFFC3FFFFCDFFFF8EFFFF0E000EA
:100F000000E00000E00000E00000E00000E0000081
:100F1000E00000E00000E00000E00000E00000E091
:100F20000000E00000E00000C000000000008000C1
:100F300003C00007E0000FE0000FE0000FE0000F2B
:100F4000E0000FE0000FE0000FE0000FE0000FE016
:100F5000000FE0000FE0000FE0000FEFFFF7DFFFF2
:100F6000FB3FFFFC3FFFFCC00000E00000E0000092
:100F7000E00000E00000E00000E00000E00000E031
:100F80000000E00000E00000E00000E00000E00001
:100F900000E00000E00000DFFFF83FFFFC9FFFFBE8
:100FA000C00007E0000FE0000FE0000FE0000FE0DE
:100FB000000FE0000FE0000FE0000FE0000FE00086
:100FC0000FE0000FE0000FE0000FE00007C000039B
:100FD00037FFFFFFFFFFFFF73000000300000700AF
:100FE000000F00000F00000F00000F00000F0000B6
:100FF0000F00000F00000F00000F00000F00000F97
:1010000000000F00000F0000070000030000008038
:101010000003C00007E0000FE0000FE0000FE00059
:101020000FE0000FE0000FE0000FE0000FE0000F06
:10103000E0000FE0000FE0000FE0000FEFFFF7DF30
:10104000FFFB3FFFFC3FFFFC3FFFFC3FFFFCDFFFE0
:10105000F8EFFFF0E00000E00000E00000E000003A
:10106000E00000E00000E00000E00000E00000E040
:101070000000E00000E00000E00000E00000DFFF12
:10108000F83FFFFC9FFFFBC00007E0000FE0000FF0
:10109000E0000FE0000FE0000FE0000FE0000FE0C5
:1010A000000FE0000FE0000FE0000FE0000FE00095
:1010B0000FE00007C00003C0000380000E000038EE
:1010C0000000E0000380000E0000380000E0000394
:1010D00080000E0000380000E0000380000E0000D9
:1010E000380000C000000000080000300000E000F0
:1010F0000380000E0000380000E0000380000E00B6
:1011000000380000E0000380000E0000380000E01E
:101110000003BFFFCDFFFF8FFFFF3FFFFC3FFFFC42
:101120003FFFFCDFFFFBEFFFF7E0000FE0000FE009
:10113000000FE0000FE0000FE0000FE0000FE00004
:101140000FE0000FE0000FE0000FE0000FE0000FE5
:10115000E00007C00003000000800003C00007E0BB
:10116000000FE0000FE0000FE0000FE0000FE000D4
:101170000FE0000FE0000FE0000FE0000FE0000FB5
:10118000E0000FE0000FE00007C000031FFFF83F82
:10119000FFFC9FFFFBC00007E0000FE0000FE00036
:1011A0000FE0000FE0000FE0000FE0000FE0000F85
:1011B000E0000FE0000FE0000FE0000FE0000FE0A4
:1011C0000007C000031FFFF83FFFFC9FFFFBC000AC
:1011D00007E0000FE0000FE0000FE0000FE0000F5D
:1011E000E0000FE0000FE0000FE0000FE0000FE074
:1011F000000FE0000FE0000FEFFFF7DFFFFB3FFF06
:10120000FC3FFFFC3FFFFC3FFFFCDFFFFBEFFFF776
:10121000E0000FE0000FE0000FE0000FE0000FE043
:10122000000FE0000FE0000FE0000FE0000FE00013
:101230000FE0000FE0000FE00007DFFFFB3FFFFCC7
:101240009FFFF8C00000E00000E00000E00000E0C8
:101250000000E00000E00000E00000E00000E0002E
:1012600000E00000E00000E00000E00000E000001E
:10127000C000003FFFFC3FFFFCDFFFFBEFFFF7E09C
:10128000000FE0000FE0000FE0000FE0000FE000B3
:101290000FE0000FE0000FE0000FE0000FE0000F94
:1012A000E0000FE0000FE00007DFFFFB3FFFFC1F47
:1012B000FFFB00000700000F00000F00000F000000
:1012C0000F00000F00000F00000F00000F00000FC4
:1012D00000000F00000F00000F00000F00000700CB
:1012E00000031FFFF8FFFFF9FFFFB00000E000035D
:1012F00080000E0000380000E0000380000E0000B7
:10130000380000E0000380000E0000380000E0001C
:101310000380000C000000C00000E00000E00000BE
:10132000E00000E00000E00000E00000E00000E07D
:101330000000E00000E00000E00000E00000E0004D
:1013400000E00000E00000DFFFF83FFFFC1FFFFBB4
:1013500000000700000F00000F00000F00000F004A
:10136000000F00000F00000F00000F00000F000032
:101370000F00000F00000F00000F0FFFF71FFFFB13
:101380003FFFFC3FFFFCC0000380000E0000380060
:1013900000E0000380000E0000380000E000038041
:1013A000000E0000380000E0000380000E0000384E
:1013B0000000DFFFF8FFFFF9FFFFB00000E00003CF
:1013C00080000E0000380000E0000380000E0000E6
:1013D000380000E0000380000E0000380000E0004C
:1013E00003BFFFCDFFFF8FFFFF3FFFFC800003C067
:1013F0000007E0000FE0000FE0000FE0000FE0004A
:101400000FE0000FE0000FE0000FE0000FE0000F22
:10141000E0000FE0000FE0000FEFFFF7DFFFFB3F02
:10142000FFFC3FFFFCC00003E00007E0000FE0000E
:101430000FE0000FE0000FE0000FE0000FE0000FF2
:10144000E0000FE0000FE0000FE0000FE0000FE011
:10145000000FE00007C00003000000800003C00090
:1014600007E0000FE0000FE0000FE0000FE0000FCA
:10147000E0000FE0000FE0000FE0000FE0000FE0E1
:10148000000FE0000FE0000FEFFFF7DFFFFB3FFF73
:10149000FC3FFFFCC00003E00007E0000FE0000F8E
:1014A000E0000FE0000FE0000FE0000FE0000FE0B1
:1014B000000FE0000FE0000FE0000FE0000FE00081
:1014C0000FE00007DFFFFB3FFFFC9FFFFBC00007B3
:1014D000E0000FE0000FE0000FE0000FE0000FE081
:1014E000000FE0000FE0000FE0000FE0000FE00051
:1014F0000FE0000FE0000FEFFFF7DFFFFB3FFFFC07
:101500003FFFFCC00003E00007E0000FE0000FE039
:10151000000FE0000FE0000FE0000FE0000FE00020
:101520000FE0000FE0000FE0000FE0000FE0000F01
:10153000E00007DFFFFB3FFFFC9FFFFBC00007E071
:10154000000FE0000FE0000FE0000FE0000FE000F0
:101550000FE0000FE0000FE0000FE0000FE0000FD1
:10156000E0000FE0000FE00007C00003C00003E050
:101570000007E0000FE0000FE0000FE0000FE000C8
:101580000FE0000FE0000FE0000FE0000FE0000FA1
:10159000E0000FE0000FE0000FE00007DFFFFB3F7F
:1015A000FFFC1FFFFB00000700000F00000F000002
:1015B0000F00000F00000F00000F00000F00000FD1
:1015C00000000F00000F00000F00000F00000F0FC1
:1015D000FFF71FFFFB3FFFFC3FFFFC3FFFFC3FFF10
:1015E000FC1FFFFB0FFFF700000F00000F00000FB4
:1015F00000000F00000F00000F00000F00000F00A0
:10160000000F00000F00000F00000F00000F00008F
:1016100007000003000000800000C00000E00000A0
:10162000E00000E00000E00000E00000E00000E07A
:101630000000E00000E00000E00000E00000E0004A
:1016400000E00000EFFFF0DFFFF83FFFFC3FFFFC92
:10165000FFE018060180601806018060180601800E
:101660006018060180601806018060180601807FFE
:10167000F0FFE0180601806018060180601806017E
:1016800080601806018060180601806018060180DD
:101690007FF0FFE0180601806018060180601806E0
:1016A000018060180601806018060180601806013C
:1016B000807FF0FFE0180601806018060180601846
:1016C0000601806018060180601806018060180617
:1016D00001807FF03FFFC7FFFEFFFFFFFFFFFFE03E
:1016E00018060180601806018060180601806018E5
:1016F000060180601806018060180601807FF03FB7
:10170000FFFC3FFFFCDFFFFBEFFFF7E0000FE00017
:101710000FE0000FE0000FE0000FE0000FE0000F0F
:10172000E0000FE0000FE0000FE0000FE0000FE02E
:10173000000FE00007DFFFFB3FFFFC9FFFFBC00047
:1017400007E0000FE0000FE0000FE0000FE0000FE7
:10175000E0000FE0000FE0000FE0000FE0000FE0FE
:10176000000FE0000FE0000FE00007C00003C00022
:1017700000E00000E00000E00000E00000E0000009
:10178000E00000E00000E00000E00000E00000E019
:101790000000E00000E00000E00000E00000DFFFEB
:1017A000F83FFFFC9FFFFBC00007E0000FE0000FC9
:1017B000E0000FE0000FE0000FE0000FE0000FE09E
:1017C000000FE0000FE0000FE0000FE0000FE0006E
:1017D0000FEFFFF7DFFFFB3FFFFC3FFFFC1FFFF8B2
:1017E000FFFFF9FFFFB00000E0000380000E0000E3
:1017F000380000E0000380000E0000380000E00028
:101800000380000E0000380000E00003BFFFCDFFA2
:10181000FF8FFFFF3FFFFC00000300000700000FE9
:1018200000000F00000F00000F00000F00000F006D
:10183000000F00000F00000F00000F00000F00005D
:101840000F00000F0000071FFFFB3FFFFC9FFFFB87
:10185000C00007E0000FE0000FE0000FE0000FE025
:10186000000FE0000FE0000FE0000FE0000FE000CD
:101870000FE0000FE0000FE0000FEFFFF7DFFFFBCE
:101880003FFFFC3FFFFC3FFFFCFFFFFDFFFFBBFFF7
:10189000FCE0000380000E0000380000E000038040
:1018A000000E0000380000E0000380000E00003849
:1018B0000000E0000380000DFFFF8FFFFF9FFFFB94
:1018C00000000E0000380000E0000380000E000061
:1018D000380000E0000380000E0000380000E00047
:1018E0000380000E00003BFFFCDFFFF8FFFFF3FF6B
:1018F000FFC03FFFFCFFFFFDFFFFBBFFFCE000035D
:1019000080000E0000380000E0000380000E0000A0
:10191000380000E0000380000E0000380000E00006
:101920000380000DFFFF8FFFFF9FFFFB00000E00F5
:1019300000380000E0000380000E0000380000E0E6
:10194000000380000E0000380000E0000380000E5D
:101950000000380000C000003FFFFC3FFFFCDFFF3D
:10196000F8EFFFF0E00000E00000E00000E0000021
:10197000E00000E00000E00000E00000E00000E027
:101980000000E00000E00000E00000E00000C00017
:1019900000000000800003C00007E0000FE0000F1F
:1019A000E0000FE0000FE0000FE0000FE0000FE0AC
:1019B000000FE0000FE0000FE0000FE0000FE0007C
:1019C0000FEFFFF7DFFFFB3FFFFC3FFFFCC0000016
:1019D000E00000E00000E00000E00000E00000E0C7
:1019E0000000E00000E00000E00000E00000E00097
:1019F00000E00000E00000E00000E00000DFFFF891
:101A00003FFFFC9FFFFBC00007E0000FE0000FE07E
:101A1000000FE0000FE0000FE0000FE0000FE0001B
:101A20000FE0000FE0000FE0000FE0000FE0000FFC
:101A3000E00007C0000337FFFFFFFFFFFFF73000A4
:101A4000000300000700000F00000F00000F00005F
:101A50000F00000F00000F00000F00000F00000F2C
:101A600000000F00000F00000F00000F0000070033
:101A70000003000000800003C00007E0000FE0004A
:101A80000FE0000FE0000FE0000FE0000FE0000F9C
:101A9000E0000FE0000FE0000FE0000FE0000FE0BB
:101AA000000FEFFFF7DFFFFB3FFFFC3FFFFC3FFFB7
:101AB000FC3FFFFCDFFFF8EFFFF0E00000E000007C
:101AC000E00000E00000E00000E00000E00000E0D6
:101AD0000000E00000E00000E00000E00000E000A6
:101AE00000E00000DFFFF83FFFFC9FFFFBC00007A6
:101AF000E0000FE0000FE0000FE0000FE0000FE05B
:101B0000000FE0000FE0000FE0000FE0000FE0002A
:101B10000FE0000FE0000FE00007C00003C000036B
:101B200080000E0000380000E0000380000E00007E
:101B3000380000E0000380000E0000380000E000E4
:101B40000380000E0000380000C000000000080004
:101B500000300000E0000380000E0000380000E0CC
:101B6000000380000E0000380000E0000380000E3B
:101B70000000380000E00003BFFFCDFFFF8FFFFF34
:101B80003FFFFC3FFFFC3FFFFCDFFFFBEFFFF7E009
:101B9000000FE0000FE0000FE0000FE0000FE0009A
:101BA0000FE0000FE0000FE0000FE0000FE0000F7B
:101BB000E0000FE0000FE00007C00003000000801D
:101BC0000003C00007E0000FE0000FE0000FE0009E
:101BD0000FE0000FE0000FE0000FE0000FE0000F4B
:101BE000E0000FE0000FE0000FE0000FE00007C092
:101BF00000031FFFF83FFFFC9FFFFBC00007E00052
:101C00000FE0000FE0000FE0000FE0000FE0000F1A
:101C1000E0000FE0000FE0000FE0000FE0000FE039
:101C2000000FE0000FE00007C000031FFFF83FFFB8
:101C3000FC9FFFFBC00007E0000FE0000FE0000F7B
:101C4000E0000FE0000FE0000FE0000FE0000FE009
:101C5000000FE0000FE0000FE0000FE0000FEFFFCB
:101C6000F7DFFFFB3FFFFC3FFFFC3FFFFC3FFFFCBC
:101C7000DFFFFBEFFFF7E0000FE0000FE0000FE0F9
:101C8000000FE0000FE0000FE0000FE0000FE000A9
:101C90000FE0000FE0000FE0000FE0000FE0000792
:101CA000DFFFFB3FFFFC9FFFF8C00000E00000E00B
:101CB0000000E00000E00000E00000E00000E000C4
:101CC00000E00000E00000E00000E00000E00000B4
:101CD000E00000E00000C000003FFFFC3FFFFCDF31
:101CE000FFFBEFFFF7E0000FE0000FE0000FE00068
:101CF0000FE0000FE0000FE0000FE0000FE0000F2A
:101D0000E0000FE0000FE0000FE0000FE00007DF51
:101D1000FFFB3FFFFC1FFFFB00000700000F000060
:101D20000F00000F00000F00000F00000F00000F59
:101D300000000F00000F00000F00000F00000F0058
:101D4000000F0000070000031FFFF8FFFFF9FFFF6F
:101D5000B00000E0000380000E0000380000E0004A
:101D60000380000E0000380000E0000380000E0039
:101D700000380000E0000380000C000000C00000FC
:101D8000E00000E00000E00000E00000E00000E013
:101D90000000E00000E00000E00000E00000E000E3
:101DA00000E00000E00000E00000E00000DFFFF8DD
:101DB0003FFFFC1FFFFB00000700000F00000F00AB
:101DC000000F00000F00000F00000F00000F0000C8
:101DD0000F00000F00000F00000F00000F00000FA9
:101DE0000FFFF71FFFFB3FFFFC3FFFFCC00003801E
:101DF000000E0000380000E0000380000E000038F4
:101E00000000E0000380000E0000380000E0000346
:101E100080000E0000380000DFFFF8FFFFF9FFFF31
:101E2000B00000E0000380000E0000380000E00079
:101E30000380000E0000380000E0000380000E0068
:101E400000380000E00003BFFFCDFFFF8FFFFF3F22
:101E5000FFFC800003C00007E0000FE0000FE0007F
:101E60000FE0000FE0000FE0000FE0000FE0000FB8
:101E7000E0000FE0000FE0000FE0000FE0000FEFC8
:101E8000FFF7DFFFFB3FFFFC3FFFFCC00003E0006C
:101E900007E0000FE0000FE0000FE0000FE0000F90
:101EA000E0000FE0000FE0000FE0000FE0000FE0A7
:101EB000000FE0000FE0000FE00007C0000300008B
:101EC00000800003C00007E0000FE0000FE0000FFB
:101ED000E0000FE0000FE0000FE0000FE0000FE077
:101EE000000FE0000FE0000FE0000FE0000FEFFF39
:101EF000F7DFFFFB3FFFFC3FFFFCC00003E00007F4
:101F0000E0000FE0000FE0000FE0000FE0000FE046
:101F1000000FE0000FE0000FE0000FE0000FE00016
:101F20000FE0000FE0000FE00007DFFFFB3FFFFCCA
:101F30009FFFFBC00007E0000FE0000FE0000FE094
:101F4000000FE0000FE0000FE0000FE0000FE000E6
:101F50000FE0000FE0000FE0000FE0000FEFFFF7D1
:101F6000DFFFFB3FFFFC3FFFFCC00003E00007E09A
:101F7000000FE0000FE0000FE0000FE0000FE000B6
:101F80000FE0000FE0000FE0000FE0000FE0000F97
:101F9000E0000FE0000FE00007DFFFFB3FFFFC9FCA
:101FA000FFFBC00007E0000FE0000FE0000FE000C3
:101FB0000FE0000FE0000FE0000FE0000FE0000F67
:101FC000E0000FE0000FE0000FE0000FE00007C0AE
:101FD0000003C00003E00007E0000FE0000FE00096
:101FE0000FE0000FE0000FE0000FE0000FE0000F37
:101FF000E0000FE0000FE0000FE0000FE0000FE056
:102000000007DFFFFB3FFFFC1FFFFB000007000096
:102010000F00000F00000F00000F00000F00000F66
:1020200000000F00000F00000F00000F00000F0065
:10203000000F00000F0FFFF71FFFFB3FFFFC3FFFEC
:10204000FC3FFFFC3FFFFC1FFFFB0FFFF700000FF3
:1020500000000F00000F00000F00000F00000F0035
:10206000000F00000F00000F00000F00000F000025
:102070000F00000F000007000003000000800000B8
:10208000C00000E00000E00000E00000E00000E030
:102090000000E00000E00000E00000E00000E000E0
:1020A00000E00000E00000E00000EFFFF0DFFFF8DC
:1020B0003FFFFC3FFFFCFFE01806018060180601AF
:1020C0008060180601806018060180601806018093
:1020D00060180601807FF0FFE01806018060180696
:1020E00001806018060180601806018060180601F2
:1020F0008060180601807FF0FFE0180601806018FC
:1021000006018060180601806018060180601806CC
:10211000018060180601807FF0FFE01806018060F2
:10212000180601806018060180601806018060189A
:1021300006018060180601807FF0000000000500A5
:10214000010000020D0602F4040005040601F40774
:10215000000A0C0A00F5160009100A01F328001005
:102160000D1001F442000B0D0C01F45400020404A4
:1021700001F4550004110601F45E0004110601F497
:10218000670005050701F46B0006080B03F97100F1
:102190000204050200720004010601FC7300020142
:1021A0000501007400050D0500F47D00080D0A010D
:1021B000F48A00040D0A03F49100090D0A01F4A049
:1021C00000080D0A01F4AD00070D0A02F4B9000978
:1021D0000D0A01F4C800090D0A01F4D700080D0A20
:1021E00000F4E400090D0A01F4F300080D0A01F4FB
:1021F0000001020A0501F70301030C0501F80801BB
:1022000009090B01F8130109040B01FB1801090965
:102210000B01F82301090D0A01F43201111012011A
:10222000F454010C0D0C00F468010B0D0C01F47A50
:10223000010B0D0D01F48C010B0D0D01F49E010934
:102240000D0B01F4AD01080D0B01F4BA010C0D0EDC
:1022500001F4CE010B0D0D01F4E001020D0502F4B5
:10226000E401070D0A01F4F0010B0D0C01F4020268
:10227000080D0A01F40F020D0D0F01F425020B0DDC
:102280000D01F437020D0D0E01F44D020A0D0C0183
:10229000F45E020D0E0E01F475020C0D0D01F489B1
:1022A000020A0D0C01F49A02090D0B01F4A9020BAC
:1022B0000D0D01F4BB020B0D0C00F4CD02110D113C
:1022C00000F4E9020C0D0C00F4FD020C0D0C00F4FE
:1022D00011030A0D0B01F4220303110501F4290374
:1022E000050D0500F4320303110500F43903070757
:1022F0000801F440030A010A000342030403050035
:10230000F44403090A0A01F75003090D0A01F45FB6
:1023100003080A0901F76903080D0A01F4760308A6
:102320000A0A01F78003040D0501F48703080E0A69
:1023300001F79503080D0A01F4A203020D0401F44C
:10234000A60304110400F4AF03090D0901F4BE0350
:10235000020D0401F4C2030D0A0F01F7D303080AAA
:102360000A01F7DD03080A0A01F7E703090D0A016C
:10237000F7F603080D0A01F70304050A0601F70A38
:1023800004080A0901F71404040C0501F51A0408ED
:102390000A0A01F72404090A0900F730040D0A0D9E
:1023A00000F74104080A0900F74B04090E0900F779
:1023B0005B04070A0901F7640404110601F46D04C3
:1023C00002110402F4720404110601F47B040703F1
:1023D0000901F9FFFFF8C0DEF72009864191FF13DC
:1023E00004C320C8FF89826190101F14DA3D1E8348
:1023F00040781708F47A3533F040203810EC20C6C6
:1024000020C640C6406C803900013C02770263045C
:10241000630477083C0E0660CC1981E0180F033680
:10242000C2D8730631E3C4FE13266CCCCCC4662339
:10243000108C4663333332664C80257EA50030C352
:102440003F30C30CD6F0C00844211084421108006C
:102450003C6642C3C3C3C3C3C3C342663C113F33DC
:10246000333333303E31B07830181C1C1C18181030
:102470000807F83C66C3C303061C0703C3C3663CD6
:102480000C187162C9A346FE183060C07F20100886
:102490000807F38C030180F06C63E01E3198780C20
:1024A00006F38D83C1E0D06C63E0FF030206040CE9
:1024B000081818181030303E31B0783C1B18F8C698
:1024C000C1E0F06C63E03C66C2C3C3C3673B030377
:1024D000C2663CC00030C0000064A00081C78E0C02
:1024E0000780700E0180FF80001FF000700E01C099
:1024F000183871C080003E31B0783018183818187C
:102500000C0000018003F0060E06018600661DBB6C
:1025100031CF18C79863CC31E611B399CCF7860058
:1025200001800070400FE00600F00F0090198198C4
:1025300010830C3FC204606606C030FF183303608E
:102540006C0D833FC606C0780F01E06FF81F861937
:1025500081A03C0180300600C0680D831861F0FF47
:10256000183303603C0780F01E03C0780F0360CF70
:10257000F0FFE030180C0603FD80C06030180FF843
:10258000FFC0C0C0C0C0FEC0C0C0C0C0C00F830E6E
:10259000606603C00C00C1FC03C0360360730F0FFC
:1025A00010C0780F01E03C0780FFFE03C0780F01E8
:1025B000E03C06FFFFFFC0060C183060C183078FA8
:1025C0001E2780C0D8330C630CC1B83F0730C31836
:1025D0006306606C0CC0C0C0C0C0C0C0C0C0C0C07A
:1025E000C0FFE03F01FC1FE0FD05EC6F637913CDF8
:1025F0009E6CF1478E3C7180E07C0FC1E83D87986E
:10260000F11E33C3786F07E07C0E0F8183180CC076
:102610006C01E00F007803C01B01980C60C0F8004B
:10262000FF306C0F03C0F06FF300C0300C0300C02C
:10263000000F8183180CC06C01E00F007803C01BF1
:1026400001986C60C0FB0008FF8C0EC06C06C06C6B
:102650000CFF8C0EC06C06C06C06C0703F186C0F6F
:1026600003C01E01F00E00F03C0D863F00FF860304
:102670000180C06030180C06030180C0C0780F01D3
:10268000E03C0780F01E03C0780F01B061F0C06C21
:102690000D8110630C610460CC1901603C0700607F
:1026A000C18130E19870CC286626211330C8986C1F
:1026B0004C14340A1A0707030380818060630C30CE
:1026C000C1980F00E00600F019019830C60E606056
:1026D000C0360630C30C1981D80F006006006006B2
:1026E00000600600FFC060300C060301C0603018B7
:1026F000060300FFC0FB6DB6DB6DB6E084108410EE
:102700008410841080EDB6DB6DB6DBE03060A2444F
:10271000D8A180FFC0C6307E71B0C060F3DB0D86EB
:10272000C73DC0C060301BCE360F0783C1E0F07CD0
:102730006DE03C66C3C0C0C0C0C3663C0303033B3E
:1027400067C3C3C3C3C3C3673B3C66C3C3FFC0C047
:10275000C3663C366F66666666603B67C3C3C3C3C9
:10276000C3C3673B0303C67CC0C0C0DEE3C3C3C3AF
:10277000C3C3C3C3C3C3FFFFC030033333333333D7
:1027800033E0C06030184C466361F0EC6231986C05
:1027900030FFFFFFC0DEF71CF0C7863C31E18F0C35
:1027A0007863C31E18C0DEE3C3C3C3C3C3C3C3C3BC
:1027B0003C66C3C3C3C3C3C3663CDE71B0783C1E72
:1027C0000F0783E36F30180C003B67C3C3C3C3C359
:1027D000C3673B030303DF318C6318C6003EE3C0CD
:1027E000C0E03C07C3E37E66F666666667C3C3C3A4
:1027F000C3C3C3C3C3C77BC1A098CC4221B0D028F8
:102800001C0C00C61E3891C4CA66D316D0A6871CFD
:1028100038C0C6004362361C181C3C266243C121E6
:1028200098CC4261B0D0381C0C0603010300FE0CAA
:1028300030C1861820C1FC3666666ECE666666308C
:10284000FFFFFFFFC0C666666737666666C0612425
:10285000380000010109000001000101230000020D
:10286000000B1C1001E529000B1C1001E550000BAA
:102870001C1001E577000B1C1001E59E000B1C10DD
:1028800001E5C5000B1C1001E5EC000B1C1001E577
:1028900013010B1C1001E53A010B1C1001E561014D
:1028A0000B1C1001E588010B1C1001E5AF01170599
:1028B0002306E9BE01060500FDFCC2010B1C100148
:1028C000E5E9011B2B2304D67B020427231BD88FA9
:1028D000021B2B2304D62103192B2306D6A8031B86
:1028E000272304D82C041B2B2304D6BE041B2B2324
:1028F00004D650051B292304D6DB051B2B2304D645
:102900006D061B2B2304D6FF0605170902E10E07EF
:102910000B1C1001E535070B1C1001E55C070B1CB7
:102920001001E583070B1C1001E5AA070B1C100121
:10293000E5D1070B1C1001E5F8071B292304D683FA
:10294000081B292304D80E0919182304E959091B67
:10295000292304D8E409192B2304D66B0A19292347
:1029600004D6EC0A1B2B2304D67E0B1B272304D88A
:10297000020C0413231BEC0C0C1B292304D8970C0A
:102980001B292304D6220D19292304D8A30D1B29A2
:102990002304D62E0E1B162304E9790E1B182304DC
:1029A000E9CA0E1B292304D6550F1B292304D6E0A0
:1029B0000F19162304E925101B292304D8B0101978
:1029C000292304D831111B152304EC78111B29236A
:1029D00004D803121B292304D88E121B272304D8E2
:1029E00012131B292304D89D131B2B2304D62F1449
:1029F0000B1C1001E556140B1C1001E57D140B1C7B
:102A00001001E5A4140B1C1001E5CB1417042306D8
:102A1000FDD7140B1C1001E5FE141B292304D689D5
:102A2000151B292304D8141619182304E95F161B53
:102A3000292304D8EA16192B2304D6711719292340
:102A400004D6F2171B2B2304D684181B272304D883
:102A500008190413231BEC12191B292304D89D19F0
:102A60001B292304D6281A19292304D8A91A1B299B
:102A70002304D6341B1B162304E97F1B1B182304D5
:102A8000E9D01B1B292304D65B1C1B292304D6E693
:102A90001C19162304E92B1D1B292304D8B61D1964
:102AA000292304D8371E1B152304EC7E1E1B292363
:102AB00004D8091F1B292304D8941F1B272304D8DB
:102AC00018201B292304D8A3201B2B2304D635212F
:102AD0000B1C1001E55C210B1C1001E583210B1C74
:102AE0001001E5AA210B1C1001E50000FFF0060013
:102AF000C0180300600C0180300600C0180300609D
:102B00000C0180300600C0180300600C0180300604
:102B100000FFF0FFF00600C0180300600C018030D9
:102B20000600C0180300600C0180300600C01803C6
:102B300000600C0180300600FFF0FFF00600C018B6
:102B40000300600C0180300600C0180300600C0117
:102B500080300600C0180300600C0180300600FFC2
:102B6000F0FFF00600C0180300600C018030060082
:102B7000C0180300600C0180300600C0180300601C
:102B80000C0180300600FFF0FFF00600C0180300C3
:102B9000600C0180300600C0180300600C0180301A
:102BA0000600C0180300600C0180300600FFF0FF33
:102BB000F00600C0180300600C0180300600C01849
:102BC0000300600C0180300600C0180300600C0197
:102BD00080300600FFF0FFF00600C0180300600C14
:102BE0000180300600C0180300600C018030060030
:102BF000C0180300600C0180300600FFF0FFF006F3
:102C000000C0180300600C0180300600C0180300EB
:102C1000600C0180300600C0180300600C01803099
:102C20000600FFF0FFF00600C0180300600C0180F2
:102C3000300600C0180300600C0180300600C01888
:102C40000300600C0180300600FFF0FFF00600C0BA
:102C5000180300600C0180300600C0180300600CEF
:102C60000180300600C0180300600C0180300600AF
:102C7000FFF0FFF00600C0180300600C0180300672
:102C800000C0180300600C0180300600C01803006B
:102C9000600C0180300600FFF0000000FFFFFBFF2A
:102CA000FFFBFFFFE00000007BFFDE78FFF0060087
:102CB000C0180300600C0180300600C018030060DB
:102CC0000C0180300600C0180300600C0180300643
:102CD00000FFF01FFFFF07FFFFF17FFFFD77FFFF02
:102CE0007F00001FE00003FC00007F80000FF00069
:102CF00001FE00003FC00007F80000FF00001FE0D9
:102D00000003FC00007F80000FF00001FE00003F88
:102D1000C00007F000007C0000060000003000004A
:102D20001F000007F00001FE00003FC00007F80090
:102D300000FF00001FE00003FC00007F80000FF098
:102D40000001FE00003FC00007F80000FF00001F68
:102D5000E00003FC00007F7FFFF75FFFFF47FFFFFE
:102D6000F07FFFFC0027FFFFFFFFFFFFFFF730377B
:102D7000FFFFFFFFFFFFFFF7201FFFFF07FFFFF031
:102D80007FFFFD07FFFF7000001E000003C0000072
:102D90007800000F000001E000003C000007800008
:102DA00000F000001E000003C000007800000F00CB
:102DB0000001E000003C00000780000071FFFFF60A
:102DC0007FFFFF37FFFFC7000000F000001E00007C
:102DD00003C000007800000F000001E000003C008C
:102DE0000007800000F000001E000003C000007813
:102DF00000000F000001E000003C0000077FFFF032
:102E00005FFFFF07FFFFF07FFFFC007FFFFC7FFFFE
:102E1000FF1FFFFF47FFFF7000007800003C00002D
:102E20001E00000F000007800003C00001E000004A
:102E3000F000007800003C00001E00000F000007BA
:102E4000800003C00001E0000077FFFFDFFFFFF11B
:102E5000FFFFF6000007000007800003C00001E04C
:102E60000000F000007800003C00001E00000F0091
:102E70000007800003C00001E00000F000007800BF
:102E8000003C00001E7FFFF77FFFFD7FFFFF1FFF5D
:102E9000FF004000005C00001FC00007F80000FFBA
:102EA00000001FE00003FC00007F80000FF0000125
:102EB000FE00003FC00007F80000FF00001FE00018
:102EC00003FC00007F80000FF00001FC00001F7F6A
:102ED000FFFD9FFFFFC1FFFFF6000001C00000786B
:102EE00000000F000001E000003C0000078000002F
:102EF000F000001E000003C000007800000F00007A
:102F000001E000003C000007800000F000001E000F
:102F10000001C00000101FFFFF07FFFFF17FFFFC53
:102F200077FFFF0F000001E000003C000007800079
:102F300000F000001E000003C000007800000F0039
:102F40000001E000003C000007800000F000001ECF
:102F5000000003C000007000000DFFFFF07FFFFFC6
:102F600007FFFFD8000007000001E000003C000060
:102F700007800000F000001E000003C00000780081
:102F8000000F000001E000003C000007800000F09E
:102F900000001E000003C00000787FFFF71FFFFF46
:102FA00047FFFFF07FFFFC001FFFFF07FFFFF17FE0
:102FB000FFFC77FFFF0F000001E000003C0000076E
:102FC000800000F000001E000003C0000078000038
:102FD0000F000001E000003C000007800000F0004E
:102FE000001E000003C000007000000DFFFFF07F16
:102FF000FFFF37FFFFDF000007F00001FE00003F8A
:10300000C00007F80000FF00001FE00003FC000004
:103010007F80000FF00001FE00003FC00007F800B5
:1030200000FF00001FE00003FC00007F7FFFF75F50
:10303000FFFF47FFFFF07FFFFC001FFFFF07FFFFC1
:10304000F17FFFFD77FFFF7F00001FE00003FC0022
:10305000007F80000FF00001FE00003FC00007F875
:103060000000FF00001FE00003FC00007F80000F55
:10307000F00001FE00003FC00007F000007C0000EF
:103080000600000000000018000007000001E0003A
:10309000003C000007800000F000001E000003C09C
:1030A00000007800000F000001E000003C00000775
:1030B000800000F000001E000003C0000078000047
:1030C00007000000401FFFFF07FFFFF17FFFFD77B4
:1030D000FFFF7F00001FE00003FC00007F80000F67
:1030E000F00001FE00003FC00007F80000FF0000F4
:1030F0001FE00003FC00007F80000FF00001FE00D5
:10310000003FC00007F000007DFFFFF67FFFFF37A4
:10311000FFFFDF000007F00001FE00003FC00007D6
:10312000F80000FF00001FE00003FC00007F8000AB
:103130000FF00001FE00003FC00007F80000FF0094
:10314000001FE00003FC00007F7FFFF75FFFFF47E9
:10315000FFFFF07FFFFC001FFFFF07FFFFF17FFF76
:10316000FD77FFFF7F00001FE00003FC00007F8071
:10317000000FF00001FE00003FC00007F80000FF54
:1031800000001FE00003FC00007F80000FF0000142
:10319000FE00003FC00007F000007DFFFFF67FFF4C
:1031A000FF07FFFFD8000007000001E000003C001F
:1031B0000007800000F000001E000003C00000783F
:1031C00000000F000001E000003C0000078000004C
:1031D000F000001E000003C00000787FFFF71FFF13
:1031E000FF47FFFFF07FFFFC00F7FFF70000000044
:1031F000000000033FFFF880FFF00600C018030046
:10320000600C0180300600C0180300600C018030A3
:103210000600C0180300600C0180300600FFF0FFBC
:10322000F00600C0180300600C0180300600C018D2
:103230000300600C0180300600C0180300600C0120
:1032400080300600FFF0FFF00600C0180300600C9D
:103250000180300600C0180300600C0180300600B9
:10326000C0180300600C0180300600FFF0FFF0067C
:1032700000C0180300600C0180300600C018030075
:10328000600C0180300600C0180300600C01803023
:103290000600FFF0FFF00600C0180300600C01807C
:1032A000300600C0180300600C0180300600C01812
:1032B0000300600C0180300600FFF0FFF00600C044
:1032C000180300600C0180300600C0180300600C79
:1032D0000180300600C0180300600C018030060039
:1032E000FFF01FFFFF07FFFFF17FFFFD77FFFF7F6D
:1032F00000001FE00003FC00007F80000FF00001D1
:10330000FE00003FC00007F80000FF00001FE000C3
:1033100003FC00007F80000FF00001FE00003FC0B2
:103320000007F000007DFFFFF67FFFFF37FFFFDFA4
:10333000000007F00001FE00003FC00007F8000099
:10334000FF00001FE00003FC00007F80000FF00082
:1033500001FE00003FC00007F80000FF00001FE072
:103360000003FC00007F0000074000004040000018
:103370001C000003C000007800000F000001E00006
:10338000003C000007800000F000001E000003C0A9
:1033900000007800000F000001E000003C00000782
:1033A000800000F000001C0000037FFFFC1FFFFFF7
:1033B000CDFFFFF7C00001FC00007F80000FF00090
:1033C00001FE00003FC00007F80000FF00001FE002
:1033D0000003FC00007F80000FF00001FE00003FB2
:1033E000C00007F80000FF00001FDFFFFDD7FFFF50
:1033F000D1FFFFFC1FFFFF000000000FFFFF8FFF4A
:10340000FFFBFFFFEE000007800003C00001E000AB
:1034100000F000007800003C00001E00000F0000DB
:1034200007800003C00001E00000F0000078000009
:103430003C00001E00000EFFFFE2FFFFF8FFFFFE52
:103440003FFFFE0000004000001C0000078000005D
:10345000F000001E000003C000007800000F000014
:1034600001E000003C000007800000F000001E00AA
:103470000003C000007800000F000001E000001C05
:103480007FFFFD9FFFFFCDFFFFF7C00001FC0000A5
:103490007F80000FF00001FE00003FC00007F80031
:1034A00000FF00001FE00003FC00007F80000FF021
:1034B0000001FE00003FC00007F80000FF00001FF1
:1034C000DFFFFDD7FFFFD1FFFFFC1FFFFF001FFF46
:1034D000FF1FFFFFD7FFFFDDFFFFCF0000078000CA
:1034E00003C00001E00000F000007800003C000094
:1034F0001E00000F000007800003C00001E0000074
:10350000F000007800003C00001C00000DFFFFF1FF
:10351000FFFFFF7FFFFDC00000F000007800003CCF
:1035200000001E00000F000007800003C00001E043
:103530000000F000007800003C00001E00000F00BA
:103540000007800003C00001DFFFFC5FFFFF1FFFDB
:10355000FFC7FFFFC01FFFFF1FFFFFD7FFFFDDFFFC
:10356000FFCF000007800003C00001E00000F00072
:10357000007800003C00001E00000F0000078000E3
:1035800003C00001E00000F000007800003C0000F3
:103590001C00000DFFFFF1FFFFFF7FFFFDC00000DB
:1035A000F000007800003C00001E00000F00000743
:1035B000800003C00001E00000F000007800003C43
:1035C00000001E00000F000007800003C00001C0C3
:1035D0000000400000001FFFFF07FFFFF17FFFFC1E
:1035E00077FFFF0F000001E000003C0000078000B3
:1035F00000F000001E000003C000007800000F0073
:103600000001E000003C000007800000F000001E08
:10361000000003C000007000000C0000000000006B
:103620003000001F000007F00001FE00003FC00056
:1036300007F80000FF00001FE00003FC00007F808F
:10364000000FF00001FE00003FC00007F80000FF7F
:1036500000001FE00003FC00007F7FFFF75FFFFF1B
:1036600047FFFFF07FFFFC004000001C000003C08C
:1036700000007800000F000001E000003C0000079F
:10368000800000F000001E000003C0000078000071
:103690000F000001E000003C000007800000F00087
:1036A000001C0000037FFFFC1FFFFFCDFFFFF7C0E2
:1036B0000001FC00007F80000FF00001FE00003FD1
:1036C000C00007F80000FF00001FE00003FC00003E
:1036D0007F80000FF00001FE00003FC00007F800EF
:1036E00000FF00001FC00001D000001037FFFFFFE7
:1036F000FFFFFFFFF7200000004000001C00000754
:10370000800000F000001E000003C00000780000F0
:103710000F000001E000003C000007800000F00006
:10372000001E000003C000007800000F000001E050
:1037300000001C0000018000000C000007C0000118
:10374000FC00007F80000FF00001FE00003FC00081
:1037500007F80000FF00001FE00003FC00007F806E
:10376000000FF00001FE00003FC00007F80000FF5E
:1037700000001FDFFFFDD7FFFFD1FFFFFC1FFFFF92
:10378000001FFFFF07FFFFF17FFFFC77FFFF0F0028
:103790000001E000003C000007800000F000001E77
:1037A000000003C000007800000F000001E00000EE
:1037B0003C000007800000F000001E000003C00075
:1037C000007000000DFFFFF07FFFFF37FFFFDF00FD
:1037D0000007F00001FE00003FC00007F80000FFF6
:1037E00000001FE00003FC00007F80000FF00001DC
:1037F000FE00003FC00007F80000FF00001FE000CF
:1038000003FC00007F000007400000404000007003
:1038100000003C00001E00000F000007800003C0F5
:103820000001E00000F000007800003C00001E00F5
:10383000000F000007800003C00001E00000F0005E
:10384000007000003000000000000C0000070000C5
:1038500003C00001E00000F000007800003C000020
:103860001E00000F000007800003C00001E0000000
:10387000F000007800003C00001E00000F00000770
:103880007FFFF17FFFFC7FFFFF1FFFFF001FFFFF98
:1038900007FFFFF17FFFFD77FFFF7F00001FE000C4
:1038A00003FC00007F80000FF00001FE00003FC01D
:1038B0000007F80000FF00001FE00003FC00007F8D
:1038C00080000FF00001FE00003FC00007F0000084
:1038D0007C0000060000003000001F000007F00020
:1038E00001FE00003FC00007F80000FF00001FE0DD
:1038F0000003FC00007F80000FF00001FE00003F8D
:10390000C00007F80000FF00001FE00003FC0000FB
:103910007F0000074000004000000003FFFFE0FFC1
:10392000FFFE6FFFFFBE00000FE00003FC00007F02
:1039300080000FF00001FE00003FC00007F800000B
:10394000FF00001FE00003FC00007F80000FF0007C
:1039500001FE00003FC00007F80000FE00000E80DE
:1039600000008000000003FFFFE0FFFFFE6FFFFF8D
:10397000BE00000FE00003FC00007F80000FF0009D
:1039800001FE00003FC00007F80000FF00001FE03C
:103990000003FC00007F80000FF00001FE00003FEC
:1039A000C00007F80000FEFFFFEEBFFFFE8FFFFF25
:1039B000E0FFFFF81FFFFF07FFFFF17FFFFD77FF2D
:1039C000FF7F00001FE00003FC00007F80000FF07D
:1039D0000001FE00003FC00007F80000FF00001FCC
:1039E000E00003FC00007F80000FF00001FE0000FB
:1039F0003FC00007F000007DFFFFF67FFFFF37FFAD
:103A0000FFC7000000F000001E000003C0000078A7
:103A100000000F000001E000003C000007800000F3
:103A2000F000001E000003C000007800000F00003E
:103A300001E000003C000007000000400000001F03
:103A4000FFFF07FFFFF17FFFFD77FFFF7F00001FF4
:103A5000E00003FC00007F80000FF00001FE00008A
:103A60003FC00007F80000FF00001FE00003FC005B
:103A7000007F80000FF00001FE00003FC00007F053
:103A800000007DFFFFF67FFFFF07FFFFD800000764
:103A9000000001E000003C000007800000F0000092
:103AA0001E000003C000007800000F000001E000CD
:103AB000003C000007800000F000001E000003C072
:103AC000000078000007000000400000000FFFFF2A
:103AD0008FFFFFFBFFFFEE000007800003C0000127
:103AE000E00000F000007800003C00001E00000F25
:103AF000000007800003C00001E00000F000007833
:103B000000003C00001E00000E000002000000400B
:103B100000001C000003C000007800000F0000013E
:103B2000E000003C000007800000F000001E0000E4
:103B300003C000007800000F000001E000003C001E
:103B40000007800000F000001C0000037FFFFC1F46
:103B5000FFFFC1FFFFF6000001C000007800000F6A
:103B6000000001E000003C000007800000F00000C1
:103B70001E000003C000007800000F000001E000FC
:103B8000003C000007800000F000001E1FFFFDC782
:103B9000FFFFD1FFFFFC1FFFFF004000007000008F
:103BA0003C00001E00000F000007800003C0000161
:103BB000E00000F000007800003C00001E00000F54
:103BC000000007800003C00001E00000F00000706A
:103BD000000037FFFFC7FFFFFDFFFFF7000003C036
:103BE0000001E00000F000007800003C00001E0032
:103BF000000F000007800003C00001E00000F0009B
:103C0000007800003C00001E00000F0000077FFF4E
:103C1000F17FFFFC7FFFFF1FFFFF00C000007C0063
:103C2000001FC00007F80000FF00001FE00003FCB9
:103C300000007F80000FF00001FE00003FC0000781
:103C4000F80000FF00001FE00003FC00007F800080
:103C50000FF00001FDFFFFDD7FFFFD1FFFFFC1FF34
:103C6000FFF04000005C00001FC00007F80000FFEC
:103C700000001FE00003FC00007F80000FF0000147
:103C8000FE00003FC00007F80000FF00001FE0003A
:103C900003FC00007F80000FF00001FC00001F000B
:103CA00000018000000C000007C00001FC00007F44
:103CB00080000FF00001FE00003FC00007F8000088
:103CC000FF00001FE00003FC00007F80000FF000F9
:103CD00001FE00003FC00007F80000FF00001FDFEA
:103CE000FFFDD7FFFFD1FFFFFC1FFFFF00400000DB
:103CF0005C00001FC00007F80000FF00001FE0008C
:103D000003FC00007F80000FF00001FE00003FC0B8
:103D10000007F80000FF00001FE00003FC00007F28
:103D200080000FF00001FC00001F7FFFFD9FFFFFE0
:103D3000CDFFFFF7C00001FC00007F80000FF00006
:103D400001FE00003FC00007F80000FF00001FE078
:103D50000003FC00007F80000FF00001FE00003F28
:103D6000C00007F80000FF00001FDFFFFDD7FFFFC6
:103D7000D1FFFFFC1FFFFF004000005C00001FC0E0
:103D80000007F80000FF00001FE00003FC00007FB8
:103D900080000FF00001FE00003FC00007F80000A7
:103DA000FF00001FE00003FC00007F80000FF00018
:103DB00001FC00001F7FFFFD9FFFFFCDFFFFF7C04D
:103DC0000001FC00007F80000FF00001FE00003FBA
:103DD000C00007F80000FF00001FE00003FC000027
:103DE0007F80000FF00001FE00003FC00007F800D8
:103DF00000FF00001FC00001D00000104000005C68
:103E000000001FC00007F80000FF00001FE00003D3
:103E1000FC00007F80000FF00001FE00003FC000AA
:103E200007F80000FF00001FE00003FC00007F8097
:103E3000000FF00001FC00001F7FFFFD9FFFFFC18E
:103E4000FFFFF6000001C000007800000F00000135
:103E5000E000003C000007800000F000001E0000B1
:103E600003C000007800000F000001E000003C00EB
:103E70000007800000F000001E1FFFFDC7FFFFD1FC
:103E8000FFFFFC1FFFFF001FFFFF07FFFFF07FFF8B
:103E9000FD07FFFF7000001E000003C00000780057
:103EA000000F000001E000003C000007800000F06F
:103EB00000001E000003C000007800000F00000199
:103EC000E000003C000007800000700000060000D9
:103ED0000030000007000000F000001E000003C0DA
:103EE00000007800000F000001E000003C00000727
:103EF000800000F000001E000003C00000780000F9
:103F00000F000001E000003C0000077FFFF05FFFB2
:103F1000FF07FFFFF07FFFFC00FFF00600C0180363
:103F200000600C0180300600C0180300600C0180A6
:103F3000300600C0180300600C0180300600FFF05E
:103F4000FFF00600C0180300600C0180300600C0BE
:103F5000180300600C0180300600C0180300600CDC
:103F60000180300600FFF0FFF00600C0180300607B
:103F70000C0180300600C0180300600C0180300680
:103F800000C0180300600C0180300600FFF0FFF055
:103F90000600C0180300600C0180300600C0180342
:103FA00000600C0180300600C0180300600C018026
:103FB000300600FFF03FFFF8FFFFFBFFFFFBFFFFB6
:103FC000E0FFF00600C0180300600C01803006001E
:103FD000C0180300600C0180300600C018030060A8
:103FE0000C0180300600FFF01FFFFF07FFFFF17F8D
:103FF000FFFD77FFFF7F00001FE00003FC00007F54
:1040000080000FF00001FE00003FC00007F8000034
:10401000FF00001FE00003FC00007F80000FF000A5
:1040200001FE00003FC00007F000007DFFFFF67FAB
:10403000FFFF37FFFFDF000007F00001FE00003F39
:10404000C00007F80000FF00001FE00003FC0000B4
:104050007F80000FF00001FE00003FC00007F80065
:1040600000FF00001FE00003FC00007F000007408D
:104070000000404000001C000003C0000078000069
:104080000F000001E000003C000007800000F0008D
:10409000001E000003C000007800000F000001E0D7
:1040A00000003C000007800000F000001C0000033E
:1040B0007FFFFC1FFFFFCDFFFFF7C00001FC0000EA
:1040C0007F80000FF00001FE00003FC00007F800F5
:1040D00000FF00001FE00003FC00007F80000FF0E5
:1040E0000001FE00003FC00007F80000FF00001FB5
:1040F000DFFFFDD7FFFFD1FFFFFC1FFFFF00000028
:10410000000FFFFF8FFFFFFBFFFFEE0000078000A7
:1041100003C00001E00000F000007800003C000057
:104120001E00000F000007800003C00001E0000037
:10413000F000007800003C00001E00000EFFFFE2CF
:10414000FFFFF8FFFFFE3FFFFE0000004000001CE5
:10415000000007800000F000001E000003C0000007
:104160007800000F000001E000003C000007800024
:1041700000F000001E000003C000007800000F00E7
:104180000001E000001C7FFFFD9FFFFFCDFFFFF758
:10419000C00001FC00007F80000FF00001FE000065
:1041A0003FC00007F80000FF00001FE00003FC0014
:1041B000007F80000FF00001FE00003FC00007F804
:1041C0000000FF00001FDFFFFDD7FFFFD1FFFFFC56
:1041D0001FFFFF001FFFFF1FFFFFD7FFFFDDFFFFD8
:1041E000CF000007800003C00001E00000F00000E5
:1041F0007800003C00001E00000F00000780000354
:10420000C00001E00000F000007800003C00001C4D
:1042100000000DFFFFF1FFFFFF7FFFFDC00000F07A
:1042200000007800003C00001E00000F0000078026
:104230000003C00001E00000F000007800003C0036
:10424000001E00000F000007800003C00001DFFF18
:10425000FC5FFFFF1FFFFFC7FFFFC01FFFFF1FFF28
:10426000FFD7FFFFDDFFFFCF000007800003C00086
:1042700001E00000F000007800003C00001E00009B
:104280000F000007800003C00001E00000F0000004
:104290007800003C00001C00000DFFFFF1FFFFFF55
:1042A0007FFFFDC00000F000007800003C00001E11
:1042B00000000F000007800003C00001E00000F0D4
:1042C00000007800003C00001E00000F0000078086
:1042D0000003C00001C00000400000001FFFFF07F6
:1042E000FFFFF17FFFFC77FFFF0F000001E0000000
:1042F0003C000007800000F000001E000003C0002A
:10430000007800000F000001E000003C0000078082
:104310000000F000001E000003C000007000000C50
:104320000000000000003000001F000007F0000146
:10433000FE00003FC00007F80000FF00001FE00083
:1043400003FC00007F80000FF00001FE00003FC072
:104350000007F80000FF00001FE00003FC00007FE2
:104360007FFFF75FFFFF47FFFFF07FFFFC0040008C
:10437000001C000003C000007800000F000001E0F6
:1043800000003C000007800000F000001E00000359
:10439000C000007800000F000001E000003C0000B9
:1043A00007800000F000001C0000037FFFFC1FFFDF
:1043B000FFCDFFFFF7C00001FC00007F80000FF081
:1043C0000001FE00003FC00007F80000FF00001FD2
:1043D000E00003FC00007F80000FF00001FE000001
:1043E0003FC00007F80000FF00001FC00001D00020
:1043F000001037FFFFFFFFFFFFFFF7200000004026
:1044000000001C000007800000F000001E000003F8
:10441000C000007800000F000001E000003C000038
:1044200007800000F000001E000003C000007800BC
:10443000000F000001E000001C0000018000000CE3
:10444000000007C00001FC00007F80000FF00001A9
:10445000FE00003FC00007F80000FF00001FE00062
:1044600003FC00007F80000FF00001FE00003FC051
:104470000007F80000FF00001FDFFFFDD7FFFFD19E
:10448000FFFFFC1FFFFF001FFFFF07FFFFF17FFF84
:10449000FC77FFFF0F000001E000003C00000780F8
:1044A0000000F000001E000003C000007800000FB4
:1044B000000001E000003C000007800000F0000068
:1044C0001E000003C000007000000DFFFFF07FFF22
:1044D000FF37FFFFDF000007F00001FE00003FC0D4
:1044E0000007F80000FF00001FE00003FC00007F51
:1044F00080000FF00001FE00003FC00007F8000040
:10450000FF00001FE00003FC00007F0000074000E8
:1045100000404000007000003C00001E00000F0042
:104520000007800003C00001E00000F000007800F8
:10453000003C00001E00000F000007800003C000C8
:1045400001E00000F00000700000300000000000FA
:104550000C000007000003C00001E00000F00000B4
:104560007800003C00001E00000F000007800003E0
:10457000C00001E00000F000007800003C00001ED8
:1045800000000F0000077FFFF17FFFFC7FFFFF1F90
:10459000FFFF001FFFFF07FFFFF17FFFFD77FFFF1A
:1045A0007F00001FE00003FC00007F80000FF00090
:1045B00001FE00003FC00007F80000FF00001FE000
:1045C0000003FC00007F80000FF00001FE00003FB0
:1045D000C00007F000007C00000600000030000072
:1045E0001F000007F00001FE00003FC00007F800B8
:1045F00000FF00001FE00003FC00007F80000FF0C0
:104600000001FE00003FC00007F80000FF00001F8F
:10461000E00003FC00007F000007400000400000B5
:104620000003FFFFE0FFFFFE6FFFFFBE00000FE093
:104630000003FC00007F80000FF00001FE00003F3F
:10464000C00007F80000FF00001FE00003FC0000AE
:104650007F80000FF00001FE00003FC00007F8005F
:1046600000FE00000E8000008000000003FFFFE05D
:10467000FFFFFE6FFFFFBE00000FE00003FC000025
:104680007F80000FF00001FE00003FC00007F8002F
:1046900000FF00001FE00003FC00007F80000FF01F
:1046A0000001FE00003FC00007F80000FEFFFFEE23
:1046B000BFFFFE8FFFFFE0FFFFF81FFFFF07FFFFB9
:1046C000F17FFFFD77FFFF7F00001FE00003FC008C
:1046D000007F80000FF00001FE00003FC00007F8DF
:1046E0000000FF00001FE00003FC00007F80000FBF
:1046F000F00001FE00003FC00007F000007DFFFF5A
:10470000F67FFFFF37FFFFC7000000F000001E002C
:104710000003C000007800000F000001E000003C32
:10472000000007800000F000001E000003C0000031
:104730007800000F000001E000003C0000070000CE
:1047400000400000001FFFFF07FFFFF17FFFFD7724
:10475000FFFF7F00001FE00003FC00007F80000FD0
:10476000F00001FE00003FC00007F80000FF00005D
:104770001FE00003FC00007F80000FF00001FE003E
:10478000003FC00007F000007DFFFFF67FFFFF073E
:10479000FFFFD8000007000001E000003C00000718
:1047A000800000F000001E000003C0000078000040
:1047B0000F000001E000003C000007800000F00056
:1047C000001E000003C00000780000070000004049
:1047D0000000000FFFFF8FFFFFFBFFFFEE00000751
:1047E000800003C00001E00000F000007800003C01
:1047F00000001E00000F000007800003C00001E061
:104800000000F000007800003C00001E00000E00D8
:1048100000020000004000001C000003C0000078FF
:1048200000000F000001E000003C000007800000D5
:10483000F000001E000003C000007800000F000020
:1048400001E000003C000007800000F000001C00B8
:1048500000037FFFFC1FFFFFC1FFFFF6000001C048
:1048600000007800000F000001E000003C0000079D
:10487000800000F000001E000003C000007800006F
:104880000F000001E000003C000007800000F00085
:10489000001E1FFFFDC7FFFFD1FFFFFC1FFFFF0032
:1048A0004000007000003C00001E00000F000007E8
:1048B000800003C00001E00000F000007800003C30
:1048C00000001E00000F000007800003C00001E090
:1048D0000000F0000070000037FFFFC7FFFFFDFF82
:1048E000FFF7000003C00001E00000F000007800C6
:1048F000003C00001E00000F000007800003C00005
:1049000001E00000F000007800003C00001E000004
:104910000F0000077FFFF17FFFFC7FFFFF1FFFFFFE
:1049200000C000007C00001FC00007F80000FF006E
:10493000001FE00003FC00007F80000FF00001FE7C
:1049400000003FC00007F80000FF00001FE0000368
:10495000FC00007F80000FF00001FDFFFFDD7FFF06
:10496000FD1FFFFFC1FFFFF04000005C00001FC003
:104970000007F80000FF00001FE00003FC00007FBC
:1049800080000FF00001FE00003FC00007F80000AB
:10499000FF00001FE00003FC00007F80000FF0001C
:1049A00001FC00001F0000018000000C000007C097
:1049B0000001FC00007F80000FF00001FE00003FBE
:1049C000C00007F80000FF00001FE00003FC00002B
:1049D0007F80000FF00001FE00003FC00007F800DC
:1049E00000FF00001FDFFFFDD7FFFFD1FFFFFC1F0F
:1049F000FFFF004000005C00001FC00007F800003F
:104A0000FF00001FE00003FC00007F80000FF000AB
:104A100001FE00003FC00007F80000FF00001FE09B
:104A20000003FC00007F80000FF00001FC00001F6D
:104A30007FFFFD9FFFFFCDFFFFF7C00001FC0000DF
:104A40007F80000FF00001FE00003FC00007F8006B
:104A500000FF00001FE00003FC00007F80000FF05B
:104A60000001FE00003FC00007F80000FF00001F2B
:104A7000DFFFFDD7FFFFD1FFFFFC1FFFFF0040005E
:104A8000005C00001FC00007F80000FF00001FE0EE
:104A90000003FC00007F80000FF00001FE00003FDB
:104AA000C00007F80000FF00001FE00003FC00004A
:104AB0007F80000FF00001FC00001F7FFFFD9FFFC3
:104AC000FFCDFFFFF7C00001FC00007F80000FF06A
:104AD0000001FE00003FC00007F80000FF00001FBB
:104AE000E00003FC00007F80000FF00001FE0000EA
:104AF0003FC00007F80000FF00001FC00001D00009
:104B000000104000005C00001FC00007F80000FF1C
:104B100000001FE00003FC00007F80000FF0000198
:104B2000FE00003FC00007F80000FF00001FE0008B
:104B300003FC00007F80000FF00001FC00001F7FDD
:104B4000FFFD9FFFFFC1FFFFF6000001C0000078DE
:104B500000000F000001E000003C000007800000A2
:104B6000F000001E000003C000007800000F0000ED
:104B700001E000003C000007800000F000001E1F64
:104B8000FFFDC7FFFFD1FFFFFC1FFFFF001FFFFF5F
:104B900007FFFFF07FFFFD07FFFF7000001E000012
:104BA00003C000007800000F000001E000003C009E
:104BB0000007800000F000001E000003C000007825
:104BC00000000F000001E000003C00000780000032
:104BD0007000000600000030000007000000F00038
:104BE000001E000003C000007800000F000001E07C
:104BF00000003C000007800000F000001E000003E1
:104C0000C000007800000F000001E000003C000040
:104C1000077FFFF05FFFFF07FFFFF07FFFFC00FF54
:104C2000F00600C0180300600C0180300600C018B8
:104C30000300600C0180300600C0180300600C0106
:104C400080300600FFF0FFF00600C0180300600C83
:104C50000180300600C0180300600C01803006009F
:104C6000C0180300600C0180300600FFF0FFF00662
:104C700000C0180300600C0180300600C01803005B
:104C8000600C0180300600C0180300600C01803009
:104C90000600FFF0FFF00600C0180300600C018062
:104CA000300600C0180300600C0180300600C018F8
:104CB0000300600C0180300600FFF00000000009D6
:104CC00000010000031A0C04E70A0009090C01E8BE
:104CD000150013181300E94E00101E1302E68A0097
:104CE0001D191F01E8E50014191702E82401030942
:104CF0000702E8280108210C03E7490108210C01FB
:104D0000E76A010A0A0E02E7770110101402F19710
:104D10000103090A03FD9B0108030C02F69E01032F
:104D2000040903FDA0010A1A0A00E7C101101913C2
:104D300002E8F30108191304E80C0210191302E841
:104D40003E0211191301E8740210191301E8A602BA
:104D500011191301E8DC0210191302E80E031019EF
:104D60001302E8400311191301E876031019130127
:104D7000E8A80303130903EEB00303180903EEB90F
:104D80000311111402F0DE0311091402F4F20311ED
:104D9000111402F017040F1A1303E74804201F240C
:104DA00001E7C404161A1701E70C05131A1703E7E5
:104DB0004A05161A1901E79205141A1803E7D305D4
:104DC000121A1603E70E06111A1503E74606181AFB
:104DD0001B01E79406131A1903E7D206031A0A0403
:104DE000E7DC060E1A1201E70A07141A1803E74B4C
:104DF000070F1A1403E77C07181A1E03E7CA0714E3
:104E00001A1A03E70B08191A1B01E75D08121A1793
:104E100003E79808191C1B01E7F008141A1903E7A7
:104E20003109141A1701E77209131A1601E7B009BC
:104E3000131A1903E7EE09151A1701E7330A201AA6
:104E40002100E79B0A151A1701E7E00A171A180054
:104E5000E72B0B131A1601E7690B06210A02E782FA
:104E60000B0A1A0A00E7A30B06210A01E7BC0B0D87
:104E70000D1002E8D20B150213FF05D80B07050928
:104E800001E7DD0B11131301EE060C101A1402E7F3
:104E90003A0C10131201EE600C111A1401E7980C71
:104EA00010131301EEBE0C071A0A01E7D50C101BF4
:104EB0001301EE0B0D0F1A1302E73C0D031A080243
:104EC000E7460D06220900E7600D101A1202E7946A
:104ED0000D031A0702E79E0D18131C02EED70D0FE3
:104EE000131302EEFB0D11131301EE240E1019140F
:104EF00002EE560E11191401EE8C0E09130C02EE7F
:104F0000A20E0E131102EEC40E07170A01EAD90E03
:104F10000F131302EEFD0E11131100EE260F1913DD
:104F20001900EE620F10131100EE880F111B110013
:104F3000EEC20F0F131101EEE60F08210C01E70777
:104F40001002210903E7101008210C03E731100FAC
:104F5000071201F1FFFFFFFFFFFFE9203FFCE3F134
:104F6000F8FC7E3F1F8E82410001C3803870060E20
:104F700000C1803870070E0FFFF9FFFF3FFFE0E12F
:104F8000C01C3803870070E00C183FFFF7FFFEFFDE
:104F9000FFC1C3803060060C01C3803870070E006B
:104FA000C18003000FC03FF03FF87B3CF31CE30ED1
:104FB000E30EE30EE300E300F3007B007F801FF0CD
:104FC00007FC037E030F0307E307E307E307E30F91
:104FD000733E7FFC3FF80FE0030003000300000076
:104FE0000C007800E00FF00600FFC070070E07000D
:104FF0007038380300C38018061C00E071C00387B6
:105000008C001FF8E0007F860001F87000000303A9
:10501000C000387F800187FE001C387000C381C04B
:105020000E180600E0C03007070380701C380380AC
:10503000FFC03803FC0180078001F0007F800FFC77
:1050400001E1E01C0E01C0E01C0E01E1E00E3C009D
:10505000778007F0007C000FE003CF1C7879C7034E
:10506000DCE01F8E00F8E00F0E0070F00F87C3FC2D
:105070007FFDC3FF0E0FC0F0FFFFFA4006060C0CC9
:105080001818383070707060E0E0E0E0E0E0E0E0D8
:10509000E060707070303818180C0C0603C0603077
:1050A0003038181C0C0E0E0E0607070707070707F7
:1050B0000707060E0E0E0C1C1838303060C00C03AB
:1050C00000C3B7FFC781E0EC738840018001800115
:1050D00080018001800180FFFFFFFFFFFF01800151
:1050E0008001800180018001800180FFF6DAC0FF2D
:1050F000FFFFFFF000C03018060180C0300C060131
:105100008060300C0300C06018060300C030180631
:105110000180C0300007E00FF81FFC3C3C781E7097
:105120000E700EE007E007E007E007E007E007E0A9
:1051300007E007E007E007E00F700E700E781E3CF6
:105140003C1FF81FF007E00303070F3FFFFF0707AF
:1051500007070707070707070707070707070707DF
:1051600007E01FF83FFC7C3E700FF00FE007E00700
:1051700000070007000F001E003C00F803F007C006
:105180001F003C00380070006000E000FFFFFFFFE0
:10519000FFFF07F007FE07FF8783C380F38039C056
:1051A0001CE00E0007000F007F003F001FE00078AA
:1051B000001E00070003F001F800FE00770073E016
:1051C000F8FFF83FF807F00000380038007800F8E2
:1051D00000F801F803B8033807380E381C381838BF
:1051E000383870386038E038FFFFFFFFFFFF0038C5
:1051F000003800380038003800381FFF0FFF8FFFDD
:10520000C700038001C000E000700039F03FFE1FBE
:10521000FF8F83E700F0003C000E000700038001D1
:10522000C000FC00EF0073C0F0FFF83FF807E0009B
:1052300003E00FF81FFC3C1E380E700E700060007B
:10524000E000E3E0EFF8FFFCFC3EF00EF00FE007BB
:10525000E007E0076007700F700E3C3E3FFC1FF850
:1052600007E0FFFFFFFFFFFF0006000E001C001815
:1052700000380070006000E000C001C001800380C1
:1052800003800700070007000E000E000E000C0050
:105290001C001C0007F00FFE0FFF8783C780F38000
:1052A00039C01CE00E780F1E0F07FF01FF03FFE35C
:1052B000E0F9C01DC00FE003F001F800FC00F700AA
:1052C00073E0F8FFF83FF807F00007E01FF83FFC35
:1052D0007C3C700EF00EE006E007E007E007E00F10
:1052E000700F783F3FFF1FF707C700070006000E4B
:1052F000700E701C783C3FF81FF007C0FFF00000F4
:105300000007FF80FFF000000007FFB6D600008016
:1053100003C007E00FC03F807E00FC01F000E0000A
:105320007C001FC001F8003F8007F0007E000F00E6
:105330000180FFFFFFFFFFFFE0000000000003FF10
:10534000FFFFFFFFFF80800070003E000FE000FCC9
:10535000001FC003F8003F0007800FC01F807F00C0
:10536000FC01F803F001C0008000000FC07FE1FFE6
:10537000E3C3EF01FC01F803F007000E003800F072
:1053800007C01F007C00E003C007000E001C0000E7
:105390000000000001C0038007000E000007F800B5
:1053A000003FFF0000FFFFC001F80FE003E001F045
:1053B000078000F80F00003C1E00001E3C03E01EAA
:1053C000380FF38E781E3F0F70381F0770780F0765
:1053D000E0700E07E0700E07E0E00E07E0E01C074B
:1053E000E0E01C0EE0E01C0EE0E0381CF070783CC1
:1053F0007078FC78783FDFF0381F0FC03C00000069
:105400001F0000000F80000007F00E0001FFFE00EB
:10541000007FFE00001FF00000F80003E0000FC056
:10542000007F0001DC000778003CE000E380038F90
:10543000001E1C00707001C1E00E0380380E00E0F9
:105440003C07FFF01FFFE0FFFF83C00E0E003C781B
:1054500000F1E001C70007BC001EF0003B8000F037
:10546000FFFC1FFFE3FFFE7003CE003DC003B8004A
:1054700077000EE001DC0073801E7FFF8FFFF1FFDD
:10548000FF3800F7000EE000FC001F8003F0007EF4
:10549000000FC003F800F7FFFCFFFF1FFF8000FFB5
:1054A000000FFF00FFFE07E07C3E0078F000E78081
:1054B00003DC000770000380000E0000380000E0ED
:1054C000000380000E0000380000E0001DC00077DF
:1054D0000003DE000E3C0078F803C1F81F03FFF85C
:1054E00003FFC003F800FFF80FFFE0FFFF0E00F816
:1054F000E003CE001CE000EE000EE000FE0007E03E
:10550000007E0007E0007E0007E0007E0007E0006C
:105510007E000FE000EE000EE001EE003CE00F8F99
:10552000FFF0FFFE0FFF80FFFFBFFFEFFFFB8000DC
:10553000E00038000E00038000E00038000E000399
:10554000FFFEFFFFBFFFEE00038000E00038000E0B
:1055500000038000E00038000E0003FFFFFFFFFFA4
:10556000FFF0FFFFFFFFFFFFFC000E0007000380BE
:1055700001C000E000700038001FFFCFFFE7FFF31D
:105580008001C000E000700038001C000E00070021
:10559000038001C000E000700000007F8003FFE096
:1055A00007FFF80F80FC1E003E3C000E78000F70D5
:1055B0000007700000E00000E00000E00000E003F1
:1055C000FFE003FFE003FFE00007F00007700007C3
:1055D00070000F78000F3C001F1E003F0FC0F70740
:1055E000FFE703FFC300FF03E000FC001F8003F0A0
:1055F000007E000FC001F8003F0007E000FC001F24
:105600008003FFFFFFFFFFFFFFF8003F0007E00000
:10561000FC001F8003F0007E000FC001F8003F0077
:1056200007E000FC001CFFFFFFFFFFFFFFFFFFFC88
:10563000001C007001C007001C007001C007001CA6
:10564000007001C007001C007001C007001F807EB1
:1056500001F807E01FC0F7879FFE3FF03F00E00121
:10566000EE003CE0078E00F0E01E0E03E0E07C0E52
:105670000F80E1F00E1E00E3C00E7C00EFE00FCEC5
:1056800000F8F00F0780E03C0E03C0E01E0E00F0B3
:10569000E00F0E0078E003CE003CE001EE000FE0EA
:1056A00001C0038007000E001C0038007000E001FC
:1056B000C0038007000E001C0038007000E001C02D
:1056C000038007000E001C0038007FFFFFFFFFFC77
:1056D000F8001FF8001FF8001FFC003FFC003FFC13
:1056E000003FEE0077EE0077EE0077E700E7E70097
:1056F000E7E700E7E381C7E381C7E381C7E1C38749
:10570000E1C387E1C387E0E707E0E707E0E707E0F9
:105710007E07E07E07E07E07E03C07E03C07F00004
:105720007F0007F8007FC007FC007FE007EF007EE6
:105730007007E7807E3C07E1C07E1E07E0E07E0F39
:1057400007E0787E0387E03C7E01E7E00E7E00F70D
:10575000E007FE003FE003FE001FE001FE000F0037
:105760007F0001FFF001FFFC01F01F01E003C1E039
:1057700000F1E0003CE0000E700007700003F8004C
:1057800000FC00007E00003F00001F80000FC000F2
:1057900007E00003B800039C0001CF0001E3C00153
:1057A000E0F001E03E03E00FFFE003FFE0003F8098
:1057B00000FFFC3FFF8FFFF3803EE003F8007E0018
:1057C0001F8007E001F8007E003F801EFFFF3FFFC3
:1057D0008FFFC38000E00038000E00038000E0006F
:1057E00038000E00038000E000380000007F000158
:1057F000FFF001FFFC01F01F01E003C1E000F1E058
:10580000003CE0000E700007700001F80000FC0092
:10581000007E00003F00001F80000FC00007E00076
:1058200007B800039C0001CF0039E3C01FE0F00778
:10583000E03E03F00FFFFC03FFEE003F838000001B
:10584000C0000020FFFE0FFFF8FFFFCE003CE0018C
:10585000EE000EE000EE000EE000EE000EE001CEE5
:10586000003CFFFF8FFFF0FFFF8E003CE001EE00E9
:105870000EE000EE000EE000EE000EE000EE000E86
:10588000E000FE000F03FC00FFF01FFF83E07C3808
:1058900001E7000E7000E7000070000780003E0086
:1058A00001FE000FFE003FF8003FE0003E0000F068
:1058B0000007E0007E0007F00077800E7C03E3FF26
:1058C000FC1FFF803FC0FFFFFFFFFFFFFF80700056
:1058D0000E0001C0003800070000E0001C0003803B
:1058E0000070000E0001C0003800070000E0001C3E
:1058F0000003800070000E0001C0003800070000A7
:10590000E0001C00E000FC001F8003F0007E000FA0
:10591000C001F8003F0007E000FC001F8003F0001A
:105920007E000FC001F8003F0007E000FC001F8070
:1059300003F0007F001EF0079F01F1FFFC1FFE0037
:105940007F00E0007F8003FC001CE001E7800F3C4B
:105950000070E00787803C1C01C0E00E0780E01C5F
:105960000700E0380783801C1C00E0E0078E001C65
:105970007000E38007B8001DC000EE0007E0001FC4
:105980000000F8000380007003C00F7003C00F78A0
:1059900003E00F7803E00E3807E00E3807F01E3CF6
:1059A00007701E3C07701C1C0E701C1C0E383C1C23
:1059B0000E383C1E1E38380E1C38380E1C1C380E93
:1059C0001C1C780F3C1C7007380E7007380E7007CF
:1059D000380E7007700EE003F007E003F007E003F5
:1059E000F007E003E003C001E003C001E003C0F002
:1059F000007BC0078F00387803C1E03C0781C03CC2
:105A00001E00F1E0038E001EF0007F0001F0000F89
:105A100080007C0007F0003B8003DE003C7801C181
:105A2000C01E0F01E03C0E00E0F0078F001E70006A
:105A3000F78003C0F0003CF00078F001E1E0038162
:105A4000E00F01C01C03C07803C1E0078380078F0B
:105A500000071C000F78000EE0000F80001F000000
:105A60001C0000380000700000E00001C00003804E
:105A7000000700000E00001C000038000070007FCE
:105A8000FFEFFFFDFFFF8000F0003C000F8001E012
:105A90000078001E00078000F0003C000F0003C0EB
:105AA0000078001E00078001E0007C000F0003C0AA
:105AB00000F0003E0007FFFFFFFFFFFFFCFFFFF8C5
:105AC000E38E38E38E38E38E38E38E38E38E38E3A6
:105AD0008E38E38FFFFCC030060180600C0300C0ED
